:100000000C9435010C9466010C9466010C94660105
:100010000C9466010C9466010C9466010C946601C4
:100020000C9466010C9466010C9466010C946601B4
:100030000C9466010C9466010C9466010C946601A4
:100040000C9466010C9466010C9466010C94660194
:100050000C9466010C9466010C9466010C94830662
:100060000C9466010C944D060C9423060C946601C6
:100070000C9466010C9466010C9466010C94660164
:100080000C9466010C9466010C9466010C94660154
:100090000C9466010C9466010C9466010C94660144
:1000A0000C9466010C9466010C9466010C94660134
:1000B0000C9466010C9466010C9466010C94660124
:1000C0000C9466010C9466010C9466010C94660114
:1000D0000C9466010C9466010C9466010C94660104
:1000E0000C9466010C94FB030C94CD010C94A001BC
:1000F0000C94DC010C94FE010C944A040C945404FE
:100100000C9444040C9435040C944E040C94F603A3
:100110000C945C040C94CD060C9470040C94F001C7
:100120000C943D040C9474040C9462040C944104EB
:100130000C9458040C9439040C9483020C943602E9
:100140000C946A040C94660400002100240027002B
:100150002A002D00300033000101000004010701D6
:100160000A0100002200250028002B002E0031008B
:10017000340002010000050108010B0100000A0B18
:1001800002090C0D0E080703040100000000000026
:10019000000000000000000000000000000000005F
:1001A000000000000000000012111000000000001C
:1001B000000000000000000000000000000000003F
:1001C0000000000020002300260029002C002F0042
:1001D00032000001000003010601090105050505C3
:1001E000070508080808020202020A0A08080404AF
:1001F00004040101010101010101030303030303DD
:100200000303040707070C0C0C0C0C0C0C0C02026B
:10021000020206060606060606060B0B0B0B0B0B68
:100220000B0B0102102020080810204010204080F5
:1002300002010201080402010102040810204080AA
:100240008040201008040201800402018040201038
:100250000804020108040201010204081020408081
:100260000102040810204080CD0611241FBECFEFEC
:10027000D1E2DEBFCDBF00E00CBF12E0A0E0B2E0F3
:10028000E4E4F6E100E00BBF02C007900D92A0335A
:10029000B107D9F722E0A0E3B2E001C01D92A93E68
:1002A000B207E1F711E0C5E3D1E000E006C0219715
:1002B0000109802FFE010E94180BC433D10780E092
:1002C0000807A9F70E941A070C94200B0C94000051
:1002D000CF92DF92EF92FF92CF93DF93B091DD0246
:1002E000A0E08111AB2F8091DE0290E0880F991F72
:1002F000AC014E535E4FC090E302D090E402E09018
:10030000E502F090E60230E020E0FA01C591D491D8
:10031000E881B90190E080E0EB23EA130AC02F5F87
:100320003F4F6C157D058E059F0578F36FEF7FEFCE
:10033000CB01DF91CF91FF90EF90DF90CF900895A8
:10034000AF92BF92CF92DF92EF92FF920F931F93E3
:10035000CF93DF936C017B018B01040F151FEB0121
:100360005E01AE18BF08C017D10759F06991D601D8
:10037000ED91FC910190F081E02DC6011995892B3A
:1003800079F7C501DF91CF911F910F91FF90EF9009
:10039000DF90CF90BF90AF900895FC01538D448DB6
:1003A000252F30E0842F90E0821B930B541710F020
:1003B000CF96089501970895FC01918D828D98172D
:1003C00061F0A28DAE0FBF2FB11D5D968C91928D05
:1003D0009F5F9F73928F90E008958FEF9FEF089536
:1003E000FC01918D828D981731F0828DE80FF11DFF
:1003F000858D90E008958FEF9FEF0895FC01918D1A
:10040000228D892F90E0805C9F4F821B91098F7312
:100410009927089589E392E00E94FE0121E0892B4B
:1004200009F420E0822F0895FC01A48DA80FB92FB4
:10043000B11DA35ABF4F2C91848D90E001968F730C
:100440009927848FA689B7892C93A089B1898C912B
:10045000837080648C93938D848D981306C002887A
:10046000F389E02D80818F7D80830895EF92FF9244
:100470000F931F93CF93DF93EC0181E0888F9B8DC7
:100480008C8D98131AC0E889F989808185FF15C081
:100490009FB7F894EE89FF896083E889F9898081A4
:1004A0008370806480839FBF81E090E0DF91CF9173
:1004B0001F910F91FF90EF900895F62E0B8D10E095
:1004C0000F5F1F4F0F731127E02E8C8D8E110CC004
:1004D0000FB607FCFACFE889F989808185FFF5CF4F
:1004E000CE010E941402F1CFEB8DEC0FFD2FF11D18
:1004F000E35AFF4FF0829FB7F8940B8FEA89FB898C
:1005000080818062CFCFCF93DF93EC01888D8823E9
:10051000B9F0AA89BB89E889F9898C9185FD03C066
:10052000808186FD0DC00FB607FCF7CF8C9185FF4B
:10053000F2CF808185FFEDCFCE010E941402E9CF7A
:10054000DF91CF91089580E090E0892B29F00E94FF
:100550000A0281110E94000080E090E0892B49F09E
:1005600080E090E0892B29F00E94000081110E9418
:10057000000080E090E0892B49F080E090E0892B3A
:1005800029F00E94000081110E94000080E090E0AC
:10059000892B49F080E090E0892B29F00E9400002F
:1005A00081110C9400000895CF93DF9390E0FC013B
:1005B000EE5DFD4F249184529E4FFC01849188236F
:1005C000D1F090E0880F991FFC01E85BFE4FA591E8
:1005D000B491FC01EE59FE4FC591D491623071F493
:1005E0009FB7F8943C91822F809583238C93E88168
:1005F0002E2B28839FBFDF91CF9108958FB7F8945A
:10060000EC912E2B2C938FBFF6CF3FB7F8948091AF
:10061000310290913202A0913302B091340226B59A
:10062000A89B05C02F3F19F00196A11DB11D3FBF2A
:10063000BA2FA92F982F8827BC01CD01620F711DF9
:10064000811D911D42E0660F771F881F991F4A95F3
:10065000D1F708958F929F92AF92BF92CF92DF927F
:10066000EF92FF924B015C010E9405036B017C013C
:100670000E9405036C197D098E099F09683E73402D
:1006800081059105A8F321E0821A9108A108B1081B
:1006900088EEC80E83E0D81EE11CF11C8114910481
:1006A000A104B10429F7FF90EF90DF90CF90BF90A5
:1006B000AF909F908F9008958F929F92AF92BF922C
:1006C000EF92FF920F931F93CF93DF93CDB7DEB7D7
:1006D000C054D1400FB6F894DEBF0FBECDBF2FB7C8
:1006E000F8948091350290913602A0913702B09132
:1006F00038022FBF4091DF025091E0026091E10289
:100700007091E2028C019D01041B150B260B370B27
:10071000B901A801403D574061057105A0F48091E1
:10072000E702C05CDE4F0FB6F894DEBF0FBECDBF50
:10073000DF91CF911F910F91FF90EF90BF90AF90FD
:100740009F908F9008958093DF029093E002A09392
:10075000E102B093E2021092DA021092D9021092F2
:10076000D8021092D7021092D60262E08091DB028A
:100770000E94D40261E070E080E090E00E942A03D1
:1007800061E08091DB020E94D4022091DB0230E024
:10079000F901E458FE4F8491F901EE5DFD4F94910B
:1007A00024523E4FF9012491222309F433C08823B7
:1007B00011F181508231F8F4E82FF0E08827EC51F4
:1007C000FC4F8F4F0C94180B3D044104F603350485
:1007D0003904FB0344044A044E04540458045C04E2
:1007E00062046604FB036A04700474048091800050
:1007F0008F7780938000E22FF0E0EE0FFF1FEE591D
:10080000FE4FA591B4918FB7F894EC9190959E23EB
:100810009C938FBF8091DC028551823008F068C0C4
:100820008BE291E10197F1F762E08091DB020E9497
:10083000D4028091E80290E08230910538F0880F70
:10084000991F880F991F05970197F1F7F89480E099
:100850000E9468016F3F7F4F8F4F9F4F09F04FC03D
:100860001092E702789480E05CCF809180008F7DC9
:10087000C0CF80918000877FBCCF84B58F7784BD47
:10088000BACF84B58F7DFBCF8091B0008F778093F6
:10089000B000B1CF8091B0008F7DF9CF80919000F2
:1008A0008F7780939000A7CF809190008F7DF9CFB4
:1008B00080919000877FF5CF8091A0008F77809303
:1008C000A00099CF8091A0008F7DF9CF8091A000EA
:1008D000877FF5CF809120018F77809320018BCF88
:1008E000809120018F7DF9CF80912001877FF5CF06
:1008F00064E170E080E090E00E942A0395CF81E0FF
:100900000E9468016F3F7F4F8F4F9F4F09F4A8CF20
:100910009E012F5F3F4F79015E013FEBA31A3EEF2F
:10092000B30A870180E00E946801F8016083718347
:100930008283938381E00E946801F8016483758358
:1009400086839783085F1F4FA016B10659F77894E6
:1009500030E020E0F70180809180A280B380448164
:10096000558166817781FFEF8F169F06AF06BF0620
:1009700031F04F3F0FEF50076007700719F41092E6
:10098000E70271CFF90183E0F595E7958A95E1F7E4
:10099000EA52FD4F8081880F84169506A606B70699
:1009A00018F180832F5F3F4F18E0E10EF11C2832D1
:1009B000310581F64091DA022091D6028091D7026A
:1009C000280F3327331F8091D802280F311D8091C3
:1009D000D902820F932F911D99274817190679F68E
:1009E00081E08093E7029DCE8160DBCFFC01019026
:1009F0000020E9F73197AF01481B590BBC0189E38F
:100A000092E00C94A0018F929F92AF92BF920F93AD
:100A10001F93CF93DF93CDB7DEB7A1970FB6F894AE
:100A2000DEBF0FBECDBF19A2423008F44AE08E01EE
:100A30000F5D1F4F842E912CB12CA12CA501940188
:100A40000E94F60AE62FB901CA01EA30F4F4E05D2B
:100A5000D801EE938D01232B242B252B79F790E0E1
:100A600080E0109719F0CD010E94F604A1960FB610
:100A7000F894DEBF0FBECDBFDF91CF911F910F91D4
:100A8000BF90AF909F908F900895E95CE1CF4F9217
:100A90005F926F927F928F929F92AF92BF92CF920E
:100AA000DF92EF92FF920F931F93CF936B017C0124
:100AB000742EAC019B010E94F10A882399F082E117
:100AC00092E0CF911F910F91FF90EF90DF90CF9028
:100AD000BF90AF909F908F907F906F905F904F905E
:100AE0000C94F60446015701E894B7F82FEF3FEF56
:100AF0004FE75FE7C501B4010E94F10A81110DC003
:100B00002FEF3FEF4FE75FE7C501B4010E942709D0
:100B100018161CF486E192E0D4CF2FEF3FEF4FE799
:100B20005FE4C701B6010E947F0A18161CF48AE12F
:100B300092E0C7CF2FEF3FEF4FE75FECC701B60161
:100B40000E94270987FDF3CF20E030E0A901C7010B
:100B5000B6010E94270910E000E087FF0AC06DE29D
:100B600089E392E00E9436028C01F7FAF094F7F8DC
:100B7000F094C0E060E070E080E09FE37C1641F01C
:100B800020E030E040E251E40E942C09CF5FF6CF34
:100B9000A70196010E94BB082B013C010E949E09FF
:100BA0004B015C014AE00E9403057C01E00EF11E4E
:100BB000CC23C1F1C501B4010E94CD099B01AC0158
:100BC000C301B2010E94BA084B015C016EE289E3E5
:100BD00092E00E943602E80EF91EC15018F120E0A2
:100BE00030E040E251E4C501B4010E94840A2B01C7
:100BF0003C010E949E094B01B12CA12C4AE0C50189
:100C0000B4010E940305E80EF91EC501B4010E945B
:100C1000CD099B01AC01C301B2010E94BA084B018E
:100C20005C01DBCFC701CF911F910F91FF90EF9037
:100C3000DF90CF90BF90AF909F908F907F906F90FC
:100C40005F904F9008951F920F920FB60F9211244C
:100C50000BB60F922F933F934F935F936F937F93B6
:100C60008F939F93AF93BF93EF93FF9389E392E0AA
:100C70000E941402FF91EF91BF91AF919F918F91CC
:100C80007F916F915F914F913F912F910F900BBE8C
:100C90000F900FBE0F901F9018951F920F920FB6D6
:100CA0000F9211240BB60F922F938F939F93EF9374
:100CB000FF93E0914902F0914A028081E0914F0256
:100CC000F091500282FD1DC09081809152028F5F91
:100CD0008F7320915302821741F0E0915202F0E0AD
:100CE000E75CFD4F958F80935202FF91EF919F91AA
:100CF0008F912F910F900BBE0F900FBE0F901F90F2
:100D000018958081F2CF1F920F920FB60F92112487
:100D10002F933F938F939F93AF93BF93809135020F
:100D200090913602A0913702B09138023091300292
:100D300023E0230F2D3758F50196A11DB11D2093F7
:100D400030028093350290933602A0933702B0931D
:100D500038028091310290913202A0913302B09119
:100D600034020196A11DB11D80933102909332028D
:100D7000A0933302B0933402BF91AF919F918F91B2
:100D80003F912F910F900FBE0F901F90189526E85E
:100D9000230F0296A11DB11DD2CFE9E3F2E0138229
:100DA000128288EE93E0A0E0B0E084839583A6836E
:100DB000B78384E092E09183808385EC90E095870F
:100DC000848784EC90E09787868780EC90E0918B15
:100DD000808B81EC90E0938B828B82EC90E0958B02
:100DE000848B86EC90E0978B868B118E128E138EFF
:100DF000148EA6EDB2E082E015968C9315978BE0E9
:100E000016968C931697E4E2F2E0E4911796EC9331
:100E10001797EEEDF1E0E4911896EC93189740E8FF
:100E20005EE360E070E01D964D935D936D937C935F
:100E300050970895789484B5826084BD84B58160AC
:100E400084BD85B5826085BD85B5816085BD809195
:100E50006E00816080936E0010928100809181000D
:100E60008260809381008091810081608093810005
:100E7000809180008160809380008091B1008460C7
:100E80008093B1008091B00081608093B000809128
:100E900091008260809391008091910081608093A5
:100EA0009100809190008160809390008091A100DA
:100EB00082608093A1008091A10081608093A10055
:100EC0008091A00081608093A000809121018260C8
:100ED0008093210180912101816080932101809183
:100EE000200181608093200180917A00846080934A
:100EF0007A0080917A00826080937A0080917A00F3
:100F0000816080937A0080917A00806880937A0073
:100F10001092C100E0914902F0914A0282E0808380
:100F2000E0914502F09146021082E0914702F09173
:100F300048028FEC808310925102E0914D02F091B3
:100F40004E0286E08083E0914B02F0914C0280815A
:100F500080618083E0914B02F0914C028081886037
:100F60008083E0914B02F0914C0280818068808305
:100F7000E0914B02F0914C0280818F7D808362E092
:100F80008091DB020E94D4022FB7F8948091350241
:100F900090913602A0913702B09138022FBF805D48
:100FA0009740A109B1098093DF029093E002A093DA
:100FB000E102B093E20287E38093E80200E4C4EF29
:100FC000D1E00E945C03882341F08091DC028C30E8
:100FD00009F4ABC048F48B3001F1C12CD12C90EC5A
:100FE000E92E9FE7F92E43C085518230B0F710916A
:100FF000D802612F70E0762F662766277F77809171
:10100000D902682B90E080E00E94CD092DEC3CECE9
:101010004CEC5DE30E94840AA4C06091D80270E0A9
:1010200090E080E00E94CD096B017C011091D90213
:1010300017FF0AC0AC019B0160E070E080E89FEB05
:101040000E94BA086B017C011F70612F70E090E074
:1010500080E00E94CF092DEC3CEC4CEC5DE30E945B
:10106000840AA70196010E94BB086B017C01809154
:101070007B00877F80937B0000937C0080917A00C7
:10108000806480937A0080917A0086FDFCCFB090D6
:101090007800109179008EE192E00E94F60442E01F
:1010A000C701B6010E94470584E292E00E94F6045F
:1010B00064E670E080E090E00E942A0387E292E01C
:1010C0000E94F604912F8B2D8C9FB0018D9F700D87
:1010D0009C9F700D112477FF02C061507C4F672FD9
:1010E000770F770B65956595072E000C880B990B8C
:1010F0000E94CF0942E00E94470584E292E00E94EC
:10110000F60489E392E00E94FE011816190624F401
:1011100089E392E00E94DC0160E273E080E090E00D
:101120000E942A030E94A3024CCF1091D802612F83
:1011300070E090E080E00E94CD096B017C0160913D
:10114000D9026F7070E090E080E00E94CF092DEC32
:101150003CEC4CEC5DE30E94840AA70196010E94DE
:10116000BB086B017C0117FF82CFF7FAF094F7F808
:10117000F0947DCF5058BB27AA270E94D2080C9428
:10118000450A0E94370A38F00E943E0A20F039F4DE
:101190009F3F19F426F40C94340A0EF4E095E7FB13
:1011A0000C942E0AE92F0E94560A58F3BA176207C8
:1011B00073078407950720F079F4A6F50C94780A54
:1011C0000EF4E0950B2EBA2FA02D0B01B901900162
:1011D0000C01CA01A0011124FF27591B99F0593FA6
:1011E00050F4503E68F11A16F040A22F232F342FEE
:1011F0004427585FF3CF469537952795A795F0403C
:101200005395C9F77EF41F16BA0B620B730B840B50
:10121000BAF09150A1F0FF0FBB1F661F771F881F08
:10122000C2F70EC0BA0F621F731F841F48F4879560
:1012300077956795B795F7959E3F08F0B0CF939552
:10124000880F08F09927EE0F9795879508950E94CB
:101250000A0A08F481E008950E9440090C94450AA6
:101260000E943E0A58F00E94370A40F029F45F3F7E
:1012700029F00C942E0A51110C94790A0C94340A1A
:101280000E94560A68F39923B1F3552391F3951BF5
:10129000550BBB27AA2762177307840738F09F5F97
:1012A0005F4F220F331F441FAA1FA9F335D00E2E04
:1012B0003AF0E0E832D091505040E695001CCAF771
:1012C0002BD0FE2F29D0660F771F881FBB1F261734
:1012D00037074807AB07B0E809F0BB0B802DBF010B
:1012E000FF2793585F4F3AF09E3F510578F00C94DA
:1012F0002E0A0C94790A5F3FE4F3983ED4F3869566
:1013000077956795B795F7959F5FC9F7880F911DFA
:101310009695879597F90895E1E0660F771F881FE6
:10132000BB1F621773078407BA0720F0621B730B99
:10133000840BBA0BEE1F88F7E09508950E945E0AB1
:1013400088F09F5798F0B92F9927B751B0F0E1F086
:10135000660F771F881F991F1AF0BA95C9F714C036
:10136000B13091F00E94780AB1E008950C94780AA7
:10137000672F782F8827B85F39F0B93FCCF386956F
:1013800077956795B395D9F73EF4909580957095CC
:1013900061957F4F8F4F9F4F0895E89409C097FB49
:1013A0003EF490958095709561957F4F8F4F9F4F3C
:1013B0009923A9F0F92F96E9BB279395F695879580
:1013C00077956795B795F111F8CFFAF4BB0F11F443
:1013D00060FF1BC06F5F7F4F8F4F9F4F16C08823EA
:1013E00011F096E911C0772321F09EE8872F762F20
:1013F00005C0662371F096E8862F70E060E02AF061
:101400009A95660F771F881FDAF7880F969587954C
:1014100097F90895990F0008550FAA0BE0E8FEEF21
:1014200016161706E807F907C0F012161306E407A8
:10143000F50798F0621B730B840B950B39F40A26A1
:1014400061F0232B242B252B21F408950A2609F47F
:10145000A140A6958FEF811D811D089597F99F6783
:1014600080E870E060E008959FEF80EC089500242C
:101470000A941616170618060906089500240A94F9
:1014800012161306140605060895092E0394000C7F
:1014900011F4882352F0BB0F40F4BF2B11F460FF0E
:1014A00004C06F5F7F4F8F4F9F4F089557FD905837
:1014B000440F551F59F05F3F71F04795880F97FB18
:1014C000991F61F09F3F79F08795089512161306D2
:1014D0001406551FF2CF4695F1DF08C01616170601
:1014E0001806991FF1CF8695710561050894089536
:1014F000E894BB2766277727CB0197F908950E94C8
:101500000A0A08F48FEF08950E94970A0C94450A7E
:101510000E94370A38F00E943E0A20F0952311F00D
:101520000C942E0A0C94340A11240C94790A0E940B
:10153000560A70F3959FC1F3950F50E0551F629FB7
:10154000F001729FBB27F00DB11D639FAA27F00D1C
:10155000B11DAA1F649F6627B00DA11D661F829F43
:101560002227B00DA11D621F739FB00DA11D621F28
:10157000839FA00D611D221F749F3327A00D611D45
:10158000231F849F600D211D822F762F6A2F112427
:101590009F5750409AF0F1F088234AF0EE0FFF1F5A
:1015A000BB1F661F771F881F91505040A9F79E3FB1
:1015B000510580F00C942E0A0C94790A5F3FE4F3F5
:1015C000983ED4F3869577956795B795F795E79507
:1015D0009F5FC1F7FE2B880F911D9695879597F910
:1015E00008950E940A0A880B990B0895A1E21A2E09
:1015F000AA1BBB1BFD010DC0AA1FBB1FEE1FFF1FB7
:10160000A217B307E407F50720F0A21BB30BE40B06
:10161000F50B661F771F881F991F1A9469F760954D
:101620007095809590959B01AC01BD01CF01089507
:10163000EE0FFF1F881F8BBF0790F691E02D1994C6
:04164000F894FFCF4C
:10164400000000003602A001CD018302FE01DC018E
:10165400F0016E616E00696E66006F766600544537
:101664004D5020000D0A004D4554414E4F200000BE
:00000001FF
