:100000000C9435010C9466010C9466010C94660105
:100010000C9466010C9466010C9466010C946601C4
:100020000C9466010C9466010C9466010C946601B4
:100030000C9466010C9466010C9466010C946601A4
:100040000C9466010C9466010C9466010C94660194
:100050000C9466010C9466010C9466010C94820564
:100060000C9466010C944C050C9422050C946601CA
:100070000C9466010C9466010C9466010C94660164
:100080000C9466010C9466010C9466010C94660154
:100090000C9466010C9466010C9466010C94660144
:1000A0000C9466010C9466010C9466010C94660134
:1000B0000C9466010C9466010C9466010C94660124
:1000C0000C9466010C9466010C9466010C94660114
:1000D0000C9466010C9466010C9466010C94660104
:1000E0000C9466010C9468010C9443080C94FE0176
:1000F0000C941E030C9418030C9414030C94F80233
:100100000C944B020C940A030C94F2020C94EB0234
:100110000C94CC020C9402030C94B8010C94E702EA
:100120000C94FC020C94E3020C94C6010C94100392
:100130000C94A4010C9422030C94D1020C9495010C
:100140000C9406030C94EF02000021002400270009
:100150002A002D00300033000101000004010701D6
:100160000A0100002200250028002B002E0031008B
:10017000340002010000050108010B0100000A0B18
:1001800002090C0D0E080703040100000000000026
:10019000000000000000000000000000000000005F
:1001A000000000000000000012111000000000001C
:1001B000000000000000000000000000000000003F
:1001C0000000000020002300260029002C002F0042
:1001D00032000001000003010601090105050505C3
:1001E000070508080808020202020A0A08080404AF
:1001F00004040101010101010101030303030303DD
:100200000303040707070C0C0C0C0C0C0C0C02026B
:10021000020206060606060606060B0B0B0B0B0B68
:100220000B0B0102102020080810204010204080F5
:1002300002010201080402010102040810204080AA
:100240008040201008040201800402018040201038
:100250000804020108040201010204081020408081
:100260000102040810204080430811241FBECFEF74
:10027000D1E2DEBFCDBF00E00CBF12E0A0E0B2E0F3
:10028000E0EBF5E100E00BBF02C007900D92AC344B
:10029000B107D9F723E0ACE4B2E001C01D92A2306F
:1002A000B207E1F711E0C5E3D1E000E006C0219715
:1002B0000109802FFE010E94CE0AC433D10780E0DD
:1002C0000807A9F70E9411060C94D60A0C940000A6
:1002D000AF92BF92CF92DF92EF92FF920F931F9354
:1002E000CF93DF936C017B018B01040F151FEB0192
:1002F0005E01AE18BF08C017D10759F06991D60149
:10030000ED91FC910190F081E02DC6011995892BAA
:1003100079F7C501DF91CF911F910F91FF90EF9079
:10032000DF90CF90BF90AF900895FC01538D448D26
:10033000252F30E0842F90E0821B930B541710F090
:10034000CF96089501970895FC01918D828D98179D
:1003500061F0A28DAE0FBF2FB11D5D968C91928D75
:100360009F5F9F73928F90E008958FEF9FEF0895A6
:10037000FC01918D828D981731F0828DE80FF11D6F
:10038000858D90E008958FEF9FEF0895FC01918D8A
:10039000228D892F90E0805C9F4F821B91098F7383
:1003A0009927089585E692E00E94C60121E0892BF5
:1003B00009F420E0822F0895FC01A48DA80FB92F25
:1003C000B11DA35ABF4F2C91848D90E001968F737D
:1003D0009927848FA689B7892C93A089B1898C919C
:1003E000837080648C93938D848D981306C00288EB
:1003F000F389E02D80818F7D80830895EF92FF92B5
:100400000F931F93CF93DF93EC0181E0888F9B8D37
:100410008C8D98131AC0E889F989808185FF15C0F1
:100420009FB7F894EE89FF896083E889F989808114
:100430008370806480839FBF81E090E0DF91CF91E3
:100440001F910F91FF90EF900895F62E0B8D10E005
:100450000F5F1F4F0F731127E02E8C8D8E110CC074
:100460000FB607FCFACFE889F989808185FFF5CFBF
:10047000CE010E94DC01F1CFEB8DEC0FFD2FF11DC1
:10048000E35AFF4FF0829FB7F8940B8FEA89FB89FC
:1004900080818062CFCFCF93DF93EC01888D88235A
:1004A000B9F0AA89BB89E889F9898C9185FD03C0D7
:1004B000808186FD0DC00FB607FCF7CF8C9185FFBC
:1004C000F2CF808185FFEDCFCE010E94DC01E9CF24
:1004D000DF91CF91089580E090E0892B29F00E9470
:1004E000D20181110E94000080E090E0892B49F048
:1004F00080E090E0892B29F00E94000081110E9489
:10050000000080E090E0892B49F080E090E0892BAA
:1005100029F00E94000081110E94000080E090E01C
:10052000892B49F080E090E0892B29F00E9400009F
:1005300081110C9400000895282F30E0F901E4584F
:10054000FE4F9491F901EE5DFD4F449124523E4FD0
:10055000F9012491222309F435C0992311F1915016
:100560009231F8F4E92FF0E08827E654FD4F8F4FE1
:100570000C94CE0AEB02EF02CC02E302E702D102B6
:10058000F202F802FC02020306030A03100314033A
:10059000D10218031E032203809180008F7780937D
:1005A0008000E22FF0E0EE0FFF1FEE59FE4FA59105
:1005B000B4918FB7F894EC91611148C040954E23E7
:1005C0004C938FBF0895809180008F7DE8CF8091FC
:1005D0008000877FE4CF84B58F7784BDE2CF84B578
:1005E0008F7DFBCF8091B0008F778093B000D9CF03
:1005F0008091B0008F7DF9CF809190008F778093AC
:100600009000CFCF809190008F7DF9CF80919000A6
:10061000877FF5CF8091A0008F778093A000C1CF16
:100620008091A0008F7DF9CF8091A000877FF5CFCA
:10063000809120018F7780932001B3CF809120019A
:100640008F7DF9CF80912001877FF5CF4E2BB8CFDA
:10065000CF93DF9390E0FC01EE5DFD4F2491845237
:100660009E4FFC0184918823D1F090E0880F991F60
:10067000FC01E85BFE4FA591B491FC01EE59FE4FE1
:10068000C591D49161110EC09FB7F8948C91E22F5F
:10069000E0958E238C932881E223E8839FBFDF912E
:1006A000CF9108958FB7F894EC91E22BEC938FBF24
:1006B000F6CF3FB7F8948091510290915202A091E9
:1006C0005302B091540226B5A89B05C02F3F19F0E4
:1006D0000196A11DB11D3FBFBA2FA92F982F8827C2
:1006E000BC01CD01620F711D811D911D42E0660F9D
:1006F000771F881F991F4A95D1F708952FB7F8944F
:1007000060914D0270914E0280914F029091500283
:100710002FBF0895FC0101900020E9F73197AF0148
:10072000481B590BBC0185E692E00C9468018F923E
:100730009F92AF92BF920F931F93CF93DF93CDB74A
:10074000DEB7A1970FB6F894DEBF0FBECDBF19A2DA
:10075000423008F44AE08E010F5D1F4F842E912C29
:10076000B12CA12CA50194010E94AC0AE62FB9017D
:10077000CA01EA30F4F4E05DD801EE938D01232B39
:10078000242B252B79F790E080E0109719F0CD010C
:100790000E948A03A1960FB6F894DEBF0FBECDBFAC
:1007A000DF91CF911F910F91BF90AF909F908F904D
:1007B0000895E95CE1CFCF92DF92EF92FF92CF9361
:1007C000DF936B017C016DE285E692E00E94FE0101
:1007D000EC0166277727CB016C197D098E099F09EB
:1007E0004AE00E9497038C0F9D1FDF91CF91FF90ED
:1007F000EF90DF90CF9008954F925F926F927F922B
:100800008F929F92AF92BF92CF92DF92EF92FF9220
:100810000F931F93CF936B017C01742EAC019B014E
:100820000E94A70A882399F082E192E0CF911F915C
:100830000F91FF90EF90DF90CF90BF90AF909F907F
:100840008F907F906F905F904F900C948A03460139
:100850005701E894B7F82FEF3FEF4FE75FE7C50187
:10086000B4010E94A70A81110DC02FEF3FEF4FE79F
:100870005FE7C501B4010E94DD0818161CF486E18B
:1008800092E0D4CF2FEF3FEF4FE75FE4C701B6010F
:100890000E94350A18161CF48AE192E0C7CF2FEFA8
:1008A0003FEF4FE75FECC701B6010E94DD0887FD0F
:1008B000F3CF20E030E0A901C701B6010E94DD08B6
:1008C00010E000E087FF0AC06DE285E692E00E943A
:1008D000FE018C01F7FAF094F7F8F094C0E060E0C4
:1008E00070E080E09FE37C1641F020E030E040E2E1
:1008F00051E40E94E208CF5FF6CFA70196010E9463
:1009000071082B013C010E9454094B015C014AE033
:100910000E9497037C01E00EF11ECC23C1F1C501BA
:10092000B4010E9483099B01AC01C301B2010E9482
:1009300070084B015C016EE285E692E00E94FE01C8
:10094000E80EF91EC15018F120E030E040E251E419
:10095000C501B4010E943A0A2B013C010E945409CE
:100960004B01B12CA12C4AE0C501B4010E949703B0
:10097000E80EF91EC501B4010E9483099B01AC0178
:10098000C301B2010E9470084B015C01DBCFC701BB
:10099000CF911F910F91FF90EF90DF90CF90BF907C
:1009A000AF909F908F907F906F905F904F90089541
:1009B000CF93DF93BC01990F880B990B97FF0CC065
:1009C0000E94DB03EC018EE192E00E948A038C0F0F
:1009D0009D1FDF91CF9108954AE00E949703F2CFC7
:1009E000BC01990F880B990B97FD0C94DB034AE02F
:1009F0000C9497030F931F93462F90E0FC01EE5D3C
:100A0000FD4F6491FC01E452FE4FE4914111462FE9
:100A1000F0E0EE0FFF1FEE53FE4F8591949100E43E
:100A200012E42FE030E00E94CC05611571058105CC
:100A3000910529F06F5F7F4F8F4F9F4F9F701F91E0
:100A40000F9108951F920F920FB60F9211240BB6BB
:100A50000F922F933F934F935F936F937F938F9357
:100A60009F93AF93BF93EF93FF9385E692E00E942D
:100A7000DC01FF91EF91BF91AF919F918F917F9199
:100A80006F915F914F913F912F910F900BBE0F90FF
:100A90000FBE0F901F9018951F920F920FB60F92D6
:100AA00011240BB60F922F938F939F93EF93FF9385
:100AB000E0917502F09176028081E0917B02F091E5
:100AC0007C0282FD1DC0908180917E028F5F8F73BA
:100AD00020917F02821741F0E0917E02F0E0EB5915
:100AE000FD4F958F80937E02FF91EF919F918F91A3
:100AF0002F910F900BBE0F900FBE0F901F90189567
:100B00008081F2CF1F920F920FB60F9211242F9374
:100B10003F938F939F93AF93BF9380914D0290919A
:100B20004E02A0914F02B091500230914C0223E04E
:100B3000230F2D3758F50196A11DB11D20934C02AE
:100B400080934D0290934E02A0934F02B0935002B7
:100B50008091510290915202A0915302B09154029F
:100B60000196A11DB11D8093510290935202A09352
:100B70005302B0935402BF91AF919F918F913F91D7
:100B80002F910F900FBE0F901F90189526E8230FFE
:100B90000296A11DB11DD2CFCF92DF92EF92FF92AC
:100BA0000F931F93E82FF92F05C001501109210958
:100BB000310961F1908196239417B9F305C0015072
:100BC00011092109310911F1908196239413F7CF6E
:100BD000C12CD12CE12CF12C0AC08FEFC81AD80AF5
:100BE000E80AF80A0C151D052E053F0579F08081ED
:100BF0008623841791F36C2D7D2D8E2D9F2D1F91B3
:100C00000F91FF90EF90DF90CF90089560E070E03B
:100C100080E090E01F910F91FF90EF90DF90CF90D8
:100C20000895789484B5826084BD84B5816084BD64
:100C300085B5826085BD85B5816085BD80916E007A
:100C4000816080936E0010928100809181008260AB
:100C500080938100809181008160809381008091E8
:100C600080008160809380008091B10084608093D7
:100C7000B1008091B00081608093B00080919100BC
:100C800082608093910080919100816080939100B7
:100C9000809190008160809390008091A10082609B
:100CA0008093A1008091A10081608093A100809138
:100CB000A00081608093A0008091210182608093D8
:100CC0002101809121018160809321018091200187
:100CD00081608093200180917A00846080937A0003
:100CE00080917A00826080937A0080917A0081609E
:100CF00080937A0080917A00806880937A001092C5
:100D0000C10061E082E00E94280361E083E00E946C
:100D1000280361E084E00E94280361E085E00E94EE
:100D2000280361E087E00E94280361E088E00E94D8
:100D3000280361E089E00E94280361E08AE00E94C4
:100D4000280360E086E00E94280360E08CE00E94B7
:100D5000280361E082E00E949C0260E083E00E9440
:100D60009C0261E087E00E949C0260E088E00E94B3
:100D70009C02E0917502F091760282E08083E0911E
:100D80007102F09172021082E0917302F09174028C
:100D90008FEC808310927D02E0917902F0917A02CB
:100DA00086E08083E0917702F09178028081806113
:100DB0008083E0917702F09178028081886080835F
:100DC000E0917702F0917802808180688083E091E1
:100DD0007702F091780280818F7D80830E947E036C
:100DE00061E08DE00E94280360E08CE00E9428030F
:100DF0000E947E03C3E0D0E003E210E090E4B92E4D
:100E000060E08DE00E949C02CE010197F1F761E065
:100E10008DE00E949C02C8010197F1F760E08DE02F
:100E20000E949C0261E08CE00E94FA040E94830907
:100E30002DEB37E346E855E30E943A0A20E030ED17
:100E400044E057E40E943A0A20E030E040E05FE3EB
:100E50000E943A0A6B017C010E947E0380917B0014
:100E6000877F80937B00B0927C0080917A008064C1
:100E700080937A0080917A0086FDFCCF8091780083
:100E800060917900762F682F072E000C880B990B44
:100E90000E94850920E030E0A9010E943A0A9B01E6
:100EA000AC0160E070E088EC92E40E94700860930E
:100EB000610270936202809363029093640260E027
:100EC00084E00E949C0260E085E00E949C0260E059
:100ED00086E00E94FA047093600260935F0260E013
:100EE00089E00E949C0260E08AE00E949C0260E02F
:100EF0008CE00E94FA0470935E0260935D0261E0F0
:100F000084E00E949C0261E085E00E949C0260E017
:100F100086E00E94FA0470935C0260935B0261E0D9
:100F200089E00E949C0261E08AE00E949C0260E0ED
:100F30008CE00E94FA0470935A026093590260E0B8
:100F400084E00E949C0261E085E00E949C0260E0D7
:100F500086E00E94FA04709358026093570260E0A2
:100F600089E00E949C0261E08AE00E949C0260E0AD
:100F70008CE00E94FA04709356026093550281E25D
:100F800092E00E948A0342E0C701B6010E94FC037E
:100F90008EE192E00E948A038BE292E00E948A0333
:100FA00080915F02909160020E94F00489E292E0D9
:100FB0000E948A0380915B0290915C020E94F0047F
:100FC00089E292E00E948A03809157029091580230
:100FD0000E94D80486E392E00E948A0380915D0219
:100FE00090915E020E94F00489E292E00E948A03DE
:100FF0008091590290915A020E94F00489E292E095
:101000000E948A0380915502909156020E94D80452
:1010100082E492E00E948A03609161027091620210
:10102000809163029091640242E00E94FC038EE191
:1010300092E00E948A030E9459032B013C0184EF35
:10104000C82EDD24D394E12CF12C0E94590364199D
:10105000750986099709683E734081059105A8F3D3
:1010600021E0C21AD108E108F10888EE480E83E0B9
:10107000581E611C711CC114D104E104F10429F74C
:101080000E946B02BDCEE5E6F2E01382128288EE8A
:1010900093E0A0E0B0E084839583A683B78384E0E7
:1010A00092E09183808385EC90E09587848784EC3F
:1010B00090E09787868780EC90E0918B808B81EC25
:1010C00090E0938B828B82EC90E0958B848B86EC06
:1010D00090E0978B868B118E128E138E148E08954E
:1010E0005058BB27AA270E9488080C94FB090E942D
:1010F000ED0938F00E94F40920F039F49F3F19F40B
:1011000026F40C94EA090EF4E095E7FB0C94E4094C
:10111000E92F0E940C0A58F3BA1762077307840775
:10112000950720F079F4A6F50C942E0A0EF4E095BC
:101130000B2EBA2FA02D0B01B90190010C01CA0191
:10114000A0011124FF27591B99F0593F50F4503E3C
:1011500068F11A16F040A22F232F342F4427585F2E
:10116000F3CF469537952795A795F0405395C9F746
:101170007EF41F16BA0B620B730B840BBAF09150FE
:10118000A1F0FF0FBB1F661F771F881FC2F70EC09D
:10119000BA0F621F731F841F48F487957795679570
:1011A000B795F7959E3F08F0B0CF9395880F08F05C
:1011B0009927EE0F9795879508950E94C00908F426
:1011C00081E008950E94F6080C94FB090E94F4093E
:1011D00058F00E94ED0940F029F45F3F29F00C948B
:1011E000E40951110C942F0A0C94EA090E940C0A8C
:1011F00068F39923B1F3552391F3951B550BBB2746
:10120000AA2762177307840738F09F5F5F4F220F8A
:10121000331F441FAA1FA9F335D00E2E3AF0E0E881
:1012200032D091505040E695001CCAF72BD0FE2FCB
:1012300029D0660F771F881FBB1F2617370748075F
:10124000AB07B0E809F0BB0B802DBF01FF27935817
:101250005F4F3AF09E3F510578F00C94E4090C94EE
:101260002F0A5F3FE4F3983ED4F386957795679510
:10127000B795F7959F5FC9F7880F911D969587954C
:1012800097F90895E1E0660F771F881FBB1F62176B
:1012900073078407BA0720F0621B730B840BBA0B29
:1012A000EE1F88F7E09508950E94140A88F09F5772
:1012B00098F0B92F9927B751B0F0E1F0660F771F7A
:1012C000881F991F1AF0BA95C9F714C0B13091F070
:1012D0000E942E0AB1E008950C942E0A672F782FF1
:1012E0008827B85F39F0B93FCCF386957795679535
:1012F000B395D9F73EF490958095709561957F4FA1
:101300008F4F9F4F0895E89409C097FB3EF4909546
:101310008095709561957F4F8F4F9F4F9923A9F0CE
:10132000F92F96E9BB279395F6958795779567955D
:10133000B795F111F8CFFAF4BB0F11F460FF1BC0A1
:101340006F5F7F4F8F4F9F4F16C0882311F096E934
:1013500011C0772321F09EE8872F762F05C06623E2
:1013600071F096E8862F70E060E02AF09A95660F9B
:10137000771F881FDAF7880F9695879597F9089554
:10138000990F0008550FAA0BE0E8FEEF1616170696
:10139000E807F907C0F012161306E407F50798F0FE
:1013A000621B730B840B950B39F40A2661F0232B17
:1013B000242B252B21F408950A2609F4A140A69593
:1013C0008FEF811D811D089597F99F6780E870E078
:1013D00060E008959FEF80EC089500240A941616AB
:1013E000170618060906089500240A941216130613
:1013F000140605060895092E0394000C11F48823A1
:1014000052F0BB0F40F4BF2B11F460FF04C06F5FBC
:101410007F4F8F4F9F4F089557FD9058440F551F92
:1014200059F05F3F71F04795880F97FB991F61F066
:101430009F3F79F087950895121613061406551FDD
:10144000F2CF4695F1DF08C0161617061806991F49
:10145000F1CF86957105610508940895E894BB273E
:1014600066277727CB0197F908950E94C00908F4F1
:101470008FEF08950E944D0A0C94FB090E94ED091C
:1014800038F00E94F40920F0952311F00C94E4093F
:101490000C94EA0911240C942F0A0E940C0A70F390
:1014A000959FC1F3950F50E0551F629FF001729F09
:1014B000BB27F00DB11D639FAA27F00DB11DAA1F18
:1014C000649F6627B00DA11D661F829F2227B00D65
:1014D000A11D621F739FB00DA11D621F839FA00DF0
:1014E000611D221F749F3327A00D611D231F849F40
:1014F000600D211D822F762F6A2F11249F57504097
:101500009AF0F1F088234AF0EE0FFF1FBB1F661F11
:10151000771F881F91505040A9F79E3F510580F0DA
:101520000C94E4090C942F0A5F3FE4F3983ED4F343
:10153000869577956795B795F795E7959F5FC1F77E
:10154000FE2B880F911D9695879597F908950E9417
:10155000C009880B990B0895A1E21A2EAA1BBB1B88
:10156000FD010DC0AA1FBB1FEE1FFF1FA217B3076F
:10157000E407F50720F0A21BB30BE40BF50B661F85
:10158000771F881F991F1A9469F760957095809549
:1015900090959B01AC01BD01CF010895EE0FFF1F97
:1015A000881F8BBF0790F691E02D1994F894FFCF18
:1015B00000000000FE01680195014B02C601A40174
:1015C000B8016E616E00696E66006F7666000D0A86
:1015D0000044495354414E4345200050524546492A
:1015E0004C5445522000504F535446494C54455298
:0C15F000200048554D4944495459200042
:00000001FF
