:100000000C9435010C9466010C9466010C94660105
:100010000C9466010C9466010C9466010C946601C4
:100020000C9466010C9466010C9466010C946601B4
:100030000C9466010C9466010C9466010C946601A4
:100040000C9466010C9466010C9466010C94660194
:100050000C9466010C9466010C9466010C948E0657
:100060000C9466010C9458060C942E060C946601B0
:100070000C9466010C9466010C9466010C94660164
:100080000C9466010C9466010C9466010C94660154
:100090000C9466010C9466010C9466010C94660144
:1000A0000C9466010C9466010C9466010C94660134
:1000B0000C9466010C9466010C9466010C94660124
:1000C0000C9466010C9466010C9466010C94660114
:1000D0000C9466010C9466010C9466010C94660104
:1000E0000C9466010C94CD010C94A0010C9487042F
:1000F0000C9479040C94DC010C94FE010C94D80649
:100100000C94F0010C9418040C9491040C946B045E
:100110000C9413040C9475040C945A040C947104FC
:100120000C9483040C9483020C947F040C948D042F
:100130000C9436020C9467040C9456040C946104DD
:100140000C945E040C94520400002100240027004B
:100150002A002D00300033000101000004010701D6
:100160000A0100002200250028002B002E0031008B
:10017000340002010000050108010B0100000A0B18
:1001800002090C0D0E080703040100000000000026
:10019000000000000000000000000000000000005F
:1001A000000000000000000012111000000000001C
:1001B000000000000000000000000000000000003F
:1001C0000000000020002300260029002C002F0042
:1001D00032000001000003010601090105050505C3
:1001E000070508080808020202020A0A08080404AF
:1001F00004040101010101010101030303030303DD
:100200000303040707070C0C0C0C0C0C0C0C02026B
:10021000020206060606060606060B0B0B0B0B0B68
:100220000B0B0102102020080810204010204080F5
:1002300002010201080402010102040810204080AA
:100240008040201008040201800402018040201038
:100250000804020108040201010204081020408081
:100260000102040810204080D80611241FBECFEFE1
:10027000D1E2DEBFCDBF00E00CBF12E0A0E0B2E0F3
:10028000ECE1F6E100E00BBF02C007900D92A8344C
:10029000B107D9F723E0A8E4B2E001C01D92A13074
:1002A000B207E1F711E0C5E3D1E000E006C0219715
:1002B0000109802FFE010E94040BC433D10780E0A6
:1002C0000807A9F70E9425070C940C0B0C9400005A
:1002D000CF92DF92EF92FF92CF93DF93B091F5022E
:1002E000A0E08111AB2F8091F60290E0880F991F5A
:1002F000AC014E535E4FC090FB02D090FC02E090E8
:10030000FD02F090FE0230E020E0FA01C591D491A8
:10031000E881B90190E080E0EB23EA130AC02F5F87
:100320003F4F6C157D058E059F0578F36FEF7FEFCE
:10033000CB01DF91CF91FF90EF90DF90CF900895A8
:10034000AF92BF92CF92DF92EF92FF920F931F93E3
:10035000CF93DF936C017B018B01040F151FEB0121
:100360005E01AE18BF08C017D10759F06991D601D8
:10037000ED91FC910190F081E02DC6011995892B3A
:1003800079F7C501DF91CF911F910F91FF90EF9009
:10039000DF90CF90BF90AF900895FC01538D448DB6
:1003A000252F30E0842F90E0821B930B541710F020
:1003B000CF96089501970895FC01918D828D98172D
:1003C00061F0A28DAE0FBF2FB11D5D968C91928D05
:1003D0009F5F9F73928F90E008958FEF9FEF089536
:1003E000FC01918D828D981731F0828DE80FF11DFF
:1003F000858D90E008958FEF9FEF0895FC01918D1A
:10040000228D892F90E0805C9F4F821B91098F7312
:100410009927089581E592E00E94FE0121E0892B51
:1004200009F420E0822F0895FC01A48DA80FB92FB4
:10043000B11DA35ABF4F2C91848D90E001968F730C
:100440009927848FA689B7892C93A089B1898C912B
:10045000837080648C93938D848D981306C002887A
:10046000F389E02D80818F7D80830895EF92FF9244
:100470000F931F93CF93DF93EC0181E0888F9B8DC7
:100480008C8D98131AC0E889F989808185FF15C081
:100490009FB7F894EE89FF896083E889F9898081A4
:1004A0008370806480839FBF81E090E0DF91CF9173
:1004B0001F910F91FF90EF900895F62E0B8D10E095
:1004C0000F5F1F4F0F731127E02E8C8D8E110CC004
:1004D0000FB607FCFACFE889F989808185FFF5CF4F
:1004E000CE010E941402F1CFEB8DEC0FFD2FF11D18
:1004F000E35AFF4FF0829FB7F8940B8FEA89FB898C
:1005000080818062CFCFCF93DF93EC01888D8823E9
:10051000B9F0AA89BB89E889F9898C9185FD03C066
:10052000808186FD0DC00FB607FCF7CF8C9185FF4B
:10053000F2CF808185FFEDCFCE010E941402E9CF7A
:10054000DF91CF91089580E090E0892B29F00E94FF
:100550000A0281110E94000080E090E0892B49F09E
:1005600080E090E0892B29F00E94000081110E9418
:10057000000080E090E0892B49F080E090E0892B3A
:1005800029F00E94000081110E94000080E090E0AC
:10059000892B49F080E090E0892B29F00E9400002F
:1005A00081110C9400000895CF93DF9390E0FC013B
:1005B000EE5DFD4F249184529E4FFC01849188236F
:1005C000D1F090E0880F991FFC01E85BFE4FA591E8
:1005D000B491FC01EE59FE4FC591D491623071F493
:1005E0009FB7F8943C91822F809583238C93E88168
:1005F0002E2B28839FBFDF91CF9108958FB7F8945A
:10060000EC912E2B2C938FBFF6CF863308F08653B8
:1006100020917B00982F9870277F922B90937B00DE
:100620008770806480937C0080917A0080648093DE
:100630007A0080917A0086FDFCCF809178009091BD
:10064000790008953FB7F8948091490290914A0249
:10065000A0914B02B0914C0226B5A89B05C02F3F3C
:1006600019F00196A11DB11D3FBFBA2FA92F982FD8
:100670008827BC01CD01620F711D811D911D42E0D3
:10068000660F771F881F991F4A95D1F708958F929B
:100690009F92AF92BF92CF92DF92EF92FF924B0167
:1006A0005C010E9422036B017C010E9422036C19F1
:1006B0007D098E099F09683E734081059105A8F365
:1006C00021E0821A9108A108B10888EEC80E83E0E3
:1006D000D81EE11CF11C81149104A104B10429F776
:1006E000FF90EF90DF90CF90BF90AF909F908F9052
:1006F00008958F929F92AF92BF92EF92FF920F93C5
:100700001F93CF93DF93CDB7DEB7C054D1400FB660
:10071000F894DEBF0FBECDBF2FB7F89480914D0285
:1007200090914E02A0914F02B09150022FBF409184
:10073000F7025091F8026091F9027091FA028C016F
:100740009D01041B150B260B370BB901A801403D79
:10075000574061057105A0F48091FF02C05CDE4F37
:100760000FB6F894DEBF0FBECDBFDF91CF911F91C2
:100770000F91FF90EF90BF90AF909F908F90089552
:100780008093F7029093F802A093F902B093FA02D3
:100790001092F2021092F1021092F0021092EF0207
:1007A0001092EE0262E08091F3020E94D40261E0B6
:1007B00070E080E090E00E94470361E08091F302E6
:1007C0000E94D4022091F30230E0F901E458FE4F78
:1007D0008491F901EE5DFD4F949124523E4FF90151
:1007E0002491222309F433C0882311F181508231EE
:1007F000F8F4E82FF0E08827EF5FFB4F8F4F0C9461
:10080000040B5A045E0413045204560418046104D1
:1008100067046B047104750479047F04830418046D
:1008200087048D049104809180008F7780938000ED
:10083000E22FF0E0EE0FFF1FEE59FE4FA591B491AD
:100840008FB7F894EC9190959E239C938FBF8091E5
:10085000F4028551823008F068C08BE291E1019783
:10086000F1F762E08091F3020E94D40280910003CC
:1008700090E08230910538F0880F991F880F991FFA
:1008800005970197F1F7F89480E00E9468016F3FA7
:100890007F4F8F4F9F4F09F04FC01092FF02789407
:1008A00080E05CCF809180008F7DC0CF8091800000
:1008B000877FBCCF84B58F7784BDBACF84B58F7D59
:1008C000FBCF8091B0008F778093B000B1CF809143
:1008D000B0008F7DF9CF809190008F77809390004A
:1008E000A7CF809190008F7DF9CF80919000877F76
:1008F000F5CF8091A0008F778093A00099CF809151
:10090000A0008F7DF9CF8091A000877FF5CF8091E7
:1009100020018F77809320018BCF809120018F7DE4
:10092000F9CF80912001877FF5CF64E170E080E00E
:1009300090E00E94470395CF81E00E9468016F3FDD
:100940007F4F8F4F9F4F09F4A8CF9E012F5F3F4FDE
:1009500079015E013FEBA31A3EEFB30A870180E005
:100960000E946801F801608371838283938381E030
:100970000E946801F8016483758386839783085F0A
:100980001F4FA016B10659F7789430E020E0F70128
:1009900080809180A280B380448155816681778177
:1009A000FFEF8F169F06AF06BF0631F04F3F0FEFE8
:1009B00050076007700719F41092FF0271CFF90118
:1009C00083E0F595E7958A95E1F7E251FD4F808147
:1009D000880F84169506A606B70618F180832F5F48
:1009E0003F4F18E0E10EF11C2832310581F64091AD
:1009F000F2022091EE028091EF02280F3327331F7D
:100A00008091F002280F311D8091F102820F932F07
:100A1000911D99274817190679F681E08093FF0206
:100A20009DCE8160DBCFFC0101900020E9F731977A
:100A3000AF01481B590BBC0181E592E00C94A00169
:100A40008F929F92AF92BF920F931F93CF93DF939A
:100A5000CDB7DEB7A1970FB6F894DEBF0FBECDBFFE
:100A600019A2423008F44AE08E010F5D1F4F842E18
:100A7000912CB12CA12CA50194010E94E20AE62F31
:100A8000B901CA01EA30F4F4E05DD801EE938D01BA
:100A9000232B242B252B79F790E080E0109719F079
:100AA000CD010E941305A1960FB6F894DEBF0FBECC
:100AB000CDBFDF91CF911F910F91BF90AF909F90CD
:100AC0008F900895E95CE1CF4F925F926F927F9291
:100AD0008F929F92AF92BF92CF92DF92EF92FF924E
:100AE0006B017C01AC019B010E94DD0A8823C1F0EF
:100AF00082E192E00E9413057C018EE192E00E9467
:100B000013058E0D9F1DFF90EF90DF90CF90BF904B
:100B1000AF909F908F907F906F905F904F900895CF
:100B200046015701E894B7F82FEF3FEF4FE75FE733
:100B3000C501B4010E94DD0A81110DC02FEF3FEF06
:100B40004FE75FE7C501B4010E94850918161CF440
:100B500086E192E0CFCF2FEF3FEF4FE75FE4C70191
:100B6000B6010E946B0A18161CF48AE192E0C2CF0B
:100B70002FEF3FEF4FE75FECC701B6010E948509F9
:100B800087FDF3CF20E030E0A901C701B6010E9444
:100B90008509B12CA12C87FF0AC06DE281E592E0A6
:100BA0000E9436025C01F7FAF094F7F8F0942AE01C
:100BB00037ED43EA5BE3C701B6010E9419092B0137
:100BC0003C010E948A096B017C010E94B9099B01CA
:100BD000AC01C301B2010E9418092B013C014AE09B
:100BE000C701B6010E9420057C01EA0CFB1C6EE2E5
:100BF00081E592E00E943602E80EF91E20E030E026
:100C000040E251E4C301B2010E94700A2B013C0191
:100C10000E948A094B01B12CA12C4AE0C501B40104
:100C20000E942005E80EF91EC501B4010E94B90911
:100C30009B01AC01C301B2010E94180920E030E021
:100C400040E251E40E94700A0E948A0990E080E02C
:100C50004AE00E942005E80EF91E4FCF1F920F9226
:100C60000FB60F9211240BB60F922F933F934F9311
:100C70005F936F937F938F939F93AF93BF93EF9304
:100C8000FF9381E592E00E941402FF91EF91BF91E2
:100C9000AF919F918F917F916F915F914F913F9114
:100CA0002F910F900BBE0F900FBE0F901F901895B5
:100CB0001F920F920FB60F9211240BB60F922F9323
:100CC0008F939F93EF93FF93E0916102F091620203
:100CD0008081E0916702F091680282FD1DC09081E1
:100CE00080916A028F5F8F7320916B02821741F0AF
:100CF000E0916A02F0E0EF5AFD4F958F80936A020F
:100D0000FF91EF919F918F912F910F900BBE0F90BC
:100D10000FBE0F901F9018958081F2CF1F920F92F7
:100D20000FB60F9211242F933F938F939F93AF93FE
:100D3000BF9380914D0290914E02A0914F02B091CD
:100D400050023091480223E0230F2D3758F50196C9
:100D5000A11DB11D2093480280934D0290934E0235
:100D6000A0934F02B09350028091490290914A02A1
:100D7000A0914B02B0914C020196A11DB11D809330
:100D8000490290934A02A0934B02B0934C02BF9148
:100D9000AF919F918F913F912F910F900FBE0F9028
:100DA0001F90189526E8230F0296A11DB11DD2CFE2
:100DB000E1E5F2E01382128288EE93E0A0E0B0E079
:100DC00084839583A683B78384E092E091838083B4
:100DD00085EC90E09587848784EC90E09787868700
:100DE00080EC90E0918B808B81EC90E0938B828BF8
:100DF00082EC90E0958B848B86EC90E0978B868BD1
:100E0000118E128E138E148EAEEEB2E082E0159625
:100E10008C9315978BE016968C931697E4E2F2E08C
:100E2000E4911796EC931797EEEDF1E0E4911896A4
:100E3000EC93189740E85EE360E070E01D964D93F8
:100E40005D936D937C9350970895789484B58260F8
:100E500084BD84B5816084BD85B5826085BD85B55E
:100E6000816085BD80916E00816080936E001092DC
:100E70008100809181008260809381008091810057
:100E800081608093810080918000816080938000E8
:100E90008091B10084608093B1008091B000816046
:100EA0008093B00080919100826080939100809146
:100EB0009100816080939100809190008160809387
:100EC00090008091A10082608093A1008091A10098
:100ED00081608093A1008091A00081608093A00038
:100EE00080912101826080932101809121018160A4
:100EF0008093210180912001816080932001809165
:100F00007A00846080937A0080917A008260809376
:100F10007A0080917A00816080937A0080917A00D3
:100F2000806880937A001092C10062E08091F302A1
:100F30000E94D4022FB7F89480914D0290914E02F6
:100F4000A0914F02B09150022FBF805D9740A10940
:100F5000B1098093F7029093F802A093F902B0933D
:100F6000FA0287E380930003E0916102F09162024C
:100F700082E08083E0915D02F0915E021082E09158
:100F80005F02F09160028FEC808310926902E09121
:100F90006502F091660286E08083E0916302F09141
:100FA0006402808180618083E0916302F091640239
:100FB000808188608083E0916302F0916402808187
:100FC00080688083E0916302F091640280818F7D6C
:100FD000808344EF242E332433940E9479038823A2
:100FE00049F08091F4028B3028F08D3050F085511B
:100FF0008230C0F1812C912C30ECA32E3FE7B32E30
:101000001EC06091EF0270E090E080E00E94BB099A
:101010002DEC3CEC4CEC5DE30E94700A6B017C0112
:101020006091EE0270E090E080E00E94BB099B01BD
:10103000AC01C701B6010E9419094B015C010E9475
:101040007903882341F08091F4028C3009F4CBC0FD
:10105000D8F48B3091F1C12CD12C90ECE92E9FE784
:10106000F92E55C06091EE027091EF027627672746
:10107000762790E080E00E94B9092DEC3CEC4CEC26
:101080005DE30E94700AD9CF8551823020F7C0916C
:10109000F0026C2F70E0762F662766277F778091AD
:1010A000F102682B90E080E00E94B9092DEC3CEC45
:1010B0004CEC5DE30E94700AB2C06091F00270E0F7
:1010C00090E080E00E94B9096B017C01C091F102BF
:1010D000C7FF0AC0AC019B0160E070E080E89FEBB5
:1010E0000E9418096B017C01CF706C2F70E090E0BA
:1010F00080E00E94BB092DEC3CEC4CEC5DE30E94CF
:10110000700AA70196010E9419096B017C018FE307
:101110000E9405038C018EE30E940503EC0180E42C
:101120000E940503BC01990F880B990B0E94BB0913
:101130002B013C0181E292E00E941305BE01DD0F0C
:10114000880B990B0E94BB090E94640589E292E01A
:101150000E941305029DB001039D700D129D700D3C
:10116000112477FF02C061507C4F672F770F770BF8
:1011700065956595072E000C880B990B0E94BB099D
:101180000E946405A7019601C701B6010E94DD0A0D
:10119000811108C080E392E00E941305C701B601E7
:1011A0000E946405A5019401C501B4010E94DD0AF5
:1011B000811108C086E392E00E941305C501B401C5
:1011C0000E94640580E492E00E941305C301B2010D
:1011D0000E94640568E873E180E090E00E944703A4
:1011E0000E94A302FACEC091F0026C2F70E090E052
:1011F00080E00E94B9096B017C016091F1026F707F
:1012000070E090E080E00E94BB092DEC3CEC4CECDF
:101210005DE30E94700AA70196010E9419096B0103
:101220007C01C7FF74CFF7FAF094F7F8F0946FCF12
:101230005058BB27AA270E9430090C94310A0E94FB
:10124000230A38F00E942A0A20F039F49F3F19F44B
:1012500026F40C94200A0EF4E095E7FB0C941A0A8D
:10126000E92F0E94420A58F3BA17620773078407EE
:10127000950720F079F4A6F50C94640A0EF4E09535
:101280000B2EBA2FA02D0B01B90190010C01CA0140
:10129000A0011124FF27591B99F0593F50F4503EEB
:1012A00068F11A16F040A22F232F342F4427585FDD
:1012B000F3CF469537952795A795F0405395C9F7F5
:1012C0007EF41F16BA0B620B730B840BBAF09150AD
:1012D000A1F0FF0FBB1F661F771F881FC2F70EC04C
:1012E000BA0F621F731F841F48F48795779567951F
:1012F000B795F7959E3F08F0B0CF9395880F08F00B
:101300009927EE0F9795879508950E94F60908F49E
:1013100081E008950E944A0A88F09F5798F0B92FFB
:101320009927B751B0F0E1F0660F771F881F991F1A
:101330001AF0BA95C9F714C0B13091F00E94640A4E
:10134000B1E008950C94640A672F782F8827B85F5E
:1013500039F0B93FCCF3869577956795B395D9F772
:101360003EF490958095709561957F4F8F4F9F4F7C
:101370000895E89409C097FB3EF490958095709588
:1013800061957F4F8F4F9F4F9923A9F0F92F96E9D1
:10139000BB279395F695879577956795B795F11146
:1013A000F8CFFAF4BB0F11F460FF1BC06F5F7F4FE3
:1013B0008F4F9F4F16C0882311F096E911C07723F5
:1013C00021F09EE8872F762F05C0662371F096E8FE
:1013D000862F70E060E02AF09A95660F771F881FCD
:1013E000DAF7880F9695879597F90895990F000871
:1013F000550FAA0BE0E8FEEF16161706E807F907E7
:10140000C0F012161306E407F50798F0621B730B81
:10141000840B950B39F40A2661F0232B242B252B02
:1014200021F408950A2609F4A140A6958FEF811DA5
:10143000811D089597F99F6780E870E060E0089546
:101440009FEF80EC089500240A94161617061806DC
:101450000906089500240A941216130614060506B8
:101460000895092E0394000C11F4882352F0BB0F49
:1014700040F4BF2B11F460FF04C06F5F7F4F8F4FAC
:101480009F4F089557FD9058440F551F59F05F3FE7
:1014900071F04795880F97FB991F61F09F3F79F096
:1014A00087950895121613061406551FF2CF469518
:1014B000F1DF08C0161617061806991FF1CF86959A
:1014C0007105610508940895E894BB27662777277E
:1014D000CB0197F908950E94F60908F48FEF08955B
:1014E0000E94830A0C94310A0E94230A38F00E9459
:1014F0002A0A20F0952311F00C941A0A0C94200A61
:1015000011240C94650A0E94420A70F3959FC1F35E
:10151000950F50E0551F629FF001729FBB27F00DA1
:10152000B11D639FAA27F00DB11DAA1F649F6627F6
:10153000B00DA11D661F829F2227B00DA11D621F45
:10154000739FB00DA11D621F839FA00D611D221FFF
:10155000749F3327A00D611D231F849F600D211DE3
:10156000822F762F6A2F11249F5750409AF0F1F066
:1015700088234AF0EE0FFF1FBB1F661F771F881FCF
:1015800091505040A9F79E3F510580F00C941A0AE3
:101590000C94650A5F3FE4F3983ED4F38695779503
:1015A0006795B795F795E7959F5FC1F7FE2B880F75
:1015B000911D9695879597F908950E94F609880BD5
:1015C000990B0895A1E21A2EAA1BBB1BFD010DC0A9
:1015D000AA1FBB1FEE1FFF1FA217B307E407F507E3
:1015E00020F0A21BB30BE40BF50B661F771F881FBF
:1015F000991F1A9469F760957095809590959B0155
:10160000AC01BD01CF010895EE0FFF1F881F8BBFF6
:0C1610000790F691E02D1994F894FFCF9C
:10161C00000000003602A001CD018302FE01DC01B6
:10162C00F0016E616E00696E66006F7666000D0AE1
:10163C00004C554D454E53200054454D5043200011
:10164C0054454D50500048554D494449545920007B
:08165C00434F3250504D2000B5
:00000001FF
